:020000040000FA
:0600000089EF02F012007E
:020006001200E6
:060008003BEF01F01200C5
:02000E000100EF
:0C0010004A050000600000001000000025
:04001C00D9CFE6FF53
:10002000E1CFD9FFE00E8114816EFE0EDB501F0B75
:100030008110816EFE0EDB50800B02E1000E01D0BC
:10004000010EE8B0828EE8A0829EF90E8014806EC8
:10005000FE0EDB380F0B060B8010806EE552E7CFEB
:10006000D9FF1200D9CFE6FFE1CFD9FFFE0EDB505A
:10007000010B02E1000E01D0010EE8B08088E8A07B
:10008000809880968086FE0EDB50020B02E1000E07
:1000900001D0010EE8B08088E8A080988096808624
:1000A000FE0EDB50040B02E1000E01D0010EE8B0A1
:1000B0008088E8A0809880968086FE0EDB50080B32
:1000C00002E1000E01D0010EE8B08088E8A080981F
:1000D00080968086FE0EDB50100B02E1000E01D0F0
:1000E000010EE8B08088E8A0809880968086FE0E99
:1000F000DB50200B02E1000E01D0010EE8B0808839
:10010000E8A0809880968086FE0EDB50400B02E1CE
:10011000000E01D0010EE8B08088E8A0809880969B
:100120008086E552E7CFD9FF1200D9CFE6FFE1CFB5
:10013000D9FF020EE126DF6A020EDF5C12E2010E39
:10014000DB6A780EF36E010EDBCFF4FFF350F45C44
:1001500006E2000000000000010EDB2AF2D7DF2AD1
:10016000EBD7020EE15C02E2E16AE552E16EE55294
:10017000E7CFD9FF1200D9CFE6FFE1CFD9FF020EBA
:10018000E1260A0E106E10C00CF0FE0EDBCF07F059
:1001900097EC02F00350DF6EFE0EDB50D880DF5488
:1001A000106E0A0E116E11C00CF010C007F097EC23
:1001B00002F0010E07C0DBFFE66A30DFE5528096F1
:1001C00080868088FD0EDB5002E0020E01D0000E1A
:1001D000106EDF50EA6A600FE96E000EEA22EF50FF
:1001E0001010E66E1BDFE552FF0EE66EE66A9DDF3D
:1001F000E552E552E66A12DFE55280968086FD0EF2
:10020000DB5007E0010EDB5004E1E66A07DFE55250
:100210000BD0010EDB50EA6A600FE96E000EEA2295
:10022000EF50E66EFBDEE552FF0EE66EE66A7DDF1E
:10023000E552E552020EE15C02E2E16AE552E16E4E
:10024000E552E7CFD9FF120000016F2B6F51630811
:1002500011E26F6B6E2B6E513B080CE26E6B6D2BD7
:100260006D513B0807E26D6B6C2B6C510C0802E280
:10027000010E6C6F1200DACFE4FFE2CFDAFFE9CFB4
:10028000E4FFEACFE4FFF6CFE4FFF7CFE4FFF5CFDA
:10029000E4FFF3CFE4FFF4CFE4FFFACFE4FF00EE96
:1002A00000F0100EE80403E3EECFE4FFFBD700EE0E
:1002B00010F0020EE80403E3EECFE4FFFBD7E652B2
:1002C000F2A40AD04F0EE66EF60EE66E5DEC02F07A
:1002D000E552E552F294B8DFE55200EE11F0020E5D
:1002E000E80403E3E5CFEDFFFBD700EE0FF0100EBF
:1002F000E80403E3E5CFEDFFFBD7E5CFFAFFE5CF59
:10030000F4FFE5CFF3FFE5CFF5FFE5CFF7FFE5CF4E
:10031000F6FFE5CFEAFFE5CFE9FFE5CFDAFF110011
:10032000D9CFE6FFE1CFD9FFE652DF6A070E946E20
:10033000936A200E926E070E826E816A200E806E86
:10034000E66A5DEC02F0E552200EF26E040EF16EEC
:10035000D08E820ED56EF28EDF2A8098E66A6FC04C
:10036000E6FF09DFE552E552010EE66E6EC0E6FFDC
:1003700002DFE552E552E66A6DC0E6FFFCDEE552BB
:10038000E552010EE66E6CC0E6FFF5DEE552E55281
:1003900082A428D0DF2ADF50140823E2110EDF6E7A
:1003A00082A011D000016D076D51106E116AFF0E11
:1003B000101801E1115007E13B0E6D6F6C076C5195
:1003C00002E10C0E6C6F82A20CD000016D2B3C0E72
:1003D0006D5D07E16D6B6C2B0D0E6C5D02E1010E26
:1003E0006C6F01D0DF6A200E8010806E80AA0CD066
:1003F00000016D076D51106E116AFF0E101801E1BA
:10040000115002E13C0E6D6F100E8210826E8DDE77
:0C041000A3D7E552E552E7CFD9FF120058
:04041C000E0EF66E5C
:10042000000EF76E000EF86E00010900F550756FB2
:100430000900F550766F03E1756701D03DD00900E2
:10044000F550706F0900F550716F0900F550726F2B
:1004500009000900F550E96E0900F550EA6E09003F
:1004600009000900F550736F0900F550746F090019
:100470000900F6CF77F0F7CF78F0F8CF79F070C0B9
:10048000F6FF71C0F7FF72C0F8FF0001735302E17D
:10049000745307E00900F550EE6E7307F8E2740735
:1004A000F9D777C0F6FF78C0F7FF79C0F8FF0001F1
:0A04B0007507000E765BBFD712003F
:0604BA00D9CFE6FFDACF06
:1004C000E6FFE1CFD9FFE2CFDAFFE652E652FC0EBB
:1004D000DBCFDEFFDBCFDDFF010EDB50D76EDF5061
:1004E000D66EE552E552E552E5CFDAFFE7CFD9FF08
:0204F0001200F8
:0E04F200000EF36E00EE00F0080E01D81200AE
:10050000EA6002D0EE6AFCD7F350E9601200EE6AAE
:02051000FCD716
:0E05120013EE00F023EE00F0F86A0F9C0EECE2
:0E05200002F003EC00F090EC01F0FBD71200AB
:02052E00036A5E
:10053000080EE76ED890073603360C50035C02E3D2
:0A054000036E072AE72EF7D712001A
:06054A00F928E5EC3CDCA1
:0A055000DD68FDFC00000B3A00001E
:00000001FF
